:100000000204110203F300000000000200000000DF
:1000100000000002000000000000000203C2000017
:06002000000000020000D8
:10002600D3E51F9439500BC3E51F94304004780183
:050036008002780022A9
:10003B00C3E5B092E6F5B0851FA0D3E5B092E7F526
:10004B00B0C3E5B092E7F5B0752000C3E52094147A
:10005B005004052080F5E51F6401600EE51F640266
:10006B006008E51F64036002801F75210075220084
:10007B00C3E52194F4E5229401500E74012521F57A
:0A008B002174003522F52280E722DF
:10009500753400753500D3E59692E1F596E534653E
:0C00A5001F7004E5356520600280F22227
:1000B100BD000BB90029E88CF084F8ACF022E4CD46
:1000C100FF75F008E828F8E933F9ED33FDE99CED17
:1000D1009F4005FDE99CF908D5F0E9E4C9FC22EC53
:1000E100FFF5F0E98420D21CF9ACF075F008E8289E
:1000F100F8EC33FC40079F5006D5F0F222C39FFC79
:0501010008D5F0EA2220
:10010600D3E5B092E6F5B0851FA0D3E5B092E7F54A
:10011600B0C3E5B092E7F5B0752000C3E5209415AD
:070126005004052080F522C2
:10012D00E88CF0A4AFF0C88DF0A42FC98CF0A429F1
:02013D00F922A5
:08013F00E493F608A3D9F922AC
:100147007596F94396085396FB43878075987275A1
:100157008922758DF5C2ACC28FD2ABD2AFC3E58908
:1001670092E7F589C3E58992E6F589C3E58992E5C2
:10017700F589D3E58992E4F589C28E758DFC758B77
:1001870018D28E75B0FFD2A8D2AA751F1E7520008F
:100197001195C3E5B092E5F5B0751F3C113B751F8E
:1001A7000C113B751F01113B751F06113B751F4055
:1001B700113B751800C3E51894085009751F0031E5
:1001C70006051880F0751800C3E5189408500975DE
:1001D7001F103106051880F0751800C3E51894083C
:1001E7005009751F183106051880F0751800C3E50A
:1001F7001894085009751F1C3106051880F07518EA
:1002070000C3E51894085009751F1E3106051880AC
:10021700F0751800C3E51894085009751F1F3106BB
:05022700051880F02223
:10022C00A8188619E4F51A74206519700474006511
:10023C001A600E7409651970047400651A600280E6
:10024C0004051880DB751B00751C00751D00751EE0
:10025C0000742D651970047400651A7010740125F2
:10026C001DF51D7400351EF51E0518800E742B65CA
:10027C001970047400651A70020518A8188619E420
:10028C00F51A85191F1126E86021A81BA91C7C0AE8
:10029C007D00312DC3E5199430FAE51A9400FBE882
:1002AC002AF51BE93BF51C051880D0E51D451E60A1
:1002BC000CC37400951BF87400951CF922A81BA99B
:0202CC001C22F2
:1002CE00C2D5ED30E709B2D5E4C39CFCE49DFDE94F
:1002DE0030E715B2D5E4C398F8E499F91200B1C32A
:1002EE00E49CFCE49DFD80031200B130D507C3E40D
:0602FE0098F8E499F922D2
:10030400751F80113B751800C3E5189410500975CA
:090314001F203106051880F022BB
:10031D00751800E580541FF844C0F580751900C3A9
:10032D00E519940A5004051980F5209005751801FA
:10033D008016209105751802800E20920575180300
:10034D008006209303751804E580541FF844A0F52A
:10035D0080751900C3E519940A5004051980F5201C
:10036D0090057518028016209105751835800E20A0
:10037D0092057518328006209303751830E5805468
:10038D001FF84460F580751900C3E519940A5004EF
:10039D00051980F5209005751803801620910575B7
:1003AD001836800E2092057518338006209303753C
:0503BD00180DA8182234
:1003C200C0D0C0E0C0F0C082C083C2AFC28FC28EB4
:1003D200758DFC758B1874012534F5347400353530
:1003E200F535D2AFD28ED083D082D0F0D0E0D0D04B
:0103F20032D8
:1003F300C0D0C0E0C0F0C082C083C2AFA284B392B9
:0E04030084D2AFD083D082D0F0D0E0D0D032FF
:100411007581801207853147D280D281C282C28420
:100421007104751F80113B711D85000C751F64756A
:1004310020001195E159751F647520001195E50C97
:10044100640D7018E537453860127539027104750D
:100451001F80113BC280D281D282E177E50C6423F7
:100461006008E50C642060028002E177740465375E
:100471007004740065387002E177801A850C1F31B1
:100481000674082537F8A60C74012537F537740072
:100491003538F538803CE50C643060E0E50C6431BA
:1004A10060DAE50C643260D4E50C643360CEE50CAF
:1004B100643460C8E50C643560C2E50C643660BC28
:1004C100E50C643760B6E50C643860B0E50C64395E
:1004D10060AA751F647520001195E50C6423705C9A
:1004E100E536642F70117104751F80113B75362B31
:1004F100751F2B3106E177E536642B701175362DAA
:100501007104751F80113B751F2D3106E177E536AA
:10051100642D701175362A7104751F80113B751F8A
:100521002A3106E177E536642A701175362F710498
:10053100751F80113B751F2F3106E177E50C640DA6
:1005410070107104751F80113B753903D280C2810F
:10055100D282E177751F647520001195E50C640D59
:100561006002C1C1E53045317002C1C17104A1EA27
:10057100751808512C850016850117751810512C16
:10058100E51628F532E51739F533C1067518085116
:100591002C850016850117751810512CC3E5169886
:1005A100F532E51799F533805C751808512C8500F3
:1005B10016850117751810512CAC16AD17312D8504
:1005C1000032850133803E751808512C850016854F
:1005D1000117751810512CAC00AD01A816A91751BF
:1005E100CE850032850133801CE536642B7002A173
:1005F10071E536642D7002A18DE536642A60AAE5A5
:1006010036642F60C27104751F80113B750D20C3C4
:10061100E532940074006480F8E5336480985010EA
:10062100750D2DC374009532F53274009533F53391
:10063100750E8A750F00D3E532940074006480F85A
:10064100E53364809840407C0A7D00A832A933518B
:10065100CEA804A905850014850115850E1F113B3F
:1006610074302514F51F31067C0A7D00A832A933A8
:1006710051CE850032850133C3E50E9401F50EE5B7
:100681000F9400F50F80AF850E1F113B850D1F31B3
:1006910006750800751000750900751100750A00CE
:1006A100751200750B0075130075300075310075FA
:1006B1003700753800753904D280D281D282E17752
:1006C100E50C64236008E50C642060028002E17798
:1006D100740465307004740065317002E177801A2A
:1006E100850C1F310674102530F8A60C74012530D5
:1006F100F53074003531F531803CE50C643060E053
:10070100E50C643160DAE50C643260D4E50C6433E5
:1007110060CEE50C643460C8E50C643560C2E50C5C
:10072100643660BCE50C643760B6E50C643860B0D3
:10073100E50C643960AA751F647520001195E50CFC
:10074100640D70127104751F80113B753901D280DF
:10075100D281C2828020801EE53964017002813716
:10076100E5396402700281D3E53964037002A15551
:0A077100E539640460C0812880FEB1
:0E0785007830790A75827B75830712013F2256
:02077B0000007C
:02077D0000007A
:02077F00000078
:010781002F48
:02078200000075
:010784000173
:00000001FF
