:100000000205C9020578000000000002000000009F
:100010000000000206F40000000000020598000045
:06002000000000020000D8
:1000260001F178412278A02278422278A12278E054
:100036002278452278A22278A32278A42278A522C3
:1000460078A622784B2278A722784D227848227803
:100056004F2278A82278502278432278542278A911
:100066002278AA2278582278E12278AB2278AC222C
:1000760078E22278AD2278AE2278622278AF2278B2
:10008600B02278B12278612278B22278B32278B48D
:100096002278E32278652278B52278B62278B722CC
:1000A60078B82278B92278BA2278BB2278BC22782E
:1000B600BD22786F2278BE2278702278632278BFBC
:1000C6002278792278E42278782278E52278C0228C
:1000D60078C12278E62278C22278C32278C42278B0
:1000E600C52278C62278C722A80F22E50F64C07001
:1000F600020128E50F64C17002012BE50F64C2708E
:1001060002012EE50F64C370020131E50F64C4706D
:10011600020134E50F64C570020137E50F64A8706B
:1001260002013AE50F64C67002013DE50F64C7702F
:10013600020140E50F64C870020143E50F64C9700F
:10014600020146E50F64CA70020149E50F64CB70EF
:1001560002014CE50F64CC7002014FE50F64CD70CF
:10016600020152E50F64CE70020155E50F64CF70AF
:10017600020158E50F64D07002015BE50F64D1708F
:1001860002015EE50F64D270020161E50F64D3706F
:10019600020164E50F64D470020167E50F64D5704F
:1001A60002016AE50F64D67002016DE50F64D7702F
:1001B600020170E50F64D870020173E50F64D9700F
:1001C600020176E50F64DA70020179E50F64DB70EF
:1001D60002017CE50F64DC7002017FE50F64DD70CF
:1001E600020182E50F64DE70020185E50F64DF70AF
:1001F600020188E50F64E07002018BE50F64E1708F
:1002060002018EE50F64E270020191E50F64E3706E
:10021600020194E50F64E470020197E50F64E5704E
:1002260002019AE50F64B87002019DE50F64E6705D
:100236000201A0E50F64E7700201A3E50F64E87010
:100246000201A6E50F64E9700201A9E50F64EA70F0
:100256000201ACE50F64EB700201AFE50F64EC70D0
:100266000201B2E50F64ED700201B5E50F64EE70B0
:100276000201B8E50F64EF700201BBE50F64F07090
:100286000201BEE50F64F1700201C1E50F64F27070
:100296000201C4E50F64F3700201C7E50F64F47050
:1002A6000201CAE50F64F5700201CDE50F64F67030
:1002B6000201D0E50F64F7700201D3E50F64F87010
:1002C6000201D6E50F64F9700201D9E50F64FA70F0
:1002D6000201DCE50F64FB700201DFE50F64FC70D0
:1002E6000201E2E50F64FD700201E5E50F64FE70B0
:0E02F6000201E8E50F64FF700201EB01EE2249
:10030400850B0F112685000BD3E5B092E6F5B08579
:1003140000A0D3E5B092E7F5B0C3E5B092E7F5B03D
:0F032400750C00C3E50C94155004050C80F522F0
:10033300754200754300D3E59692E1F596E5426573
:0C0343000B7004E543650C600280F222A0
:10034F00C3E5B092E6F5B0850BA0D3E5B092E7F523
:10035F00B0C3E5B092E7F5B0750C00C3E50C94148B
:10036F005004050C80F5E50B6401600EE50B64028B
:10037F006008E50B64036002801F750D00750E00A9
:10038F00C3E50D94F4E50E9401500E7401250DF59F
:0A039F000D7400350EF50E80E72204
:1003A9007596F94396085396FB438780759872753D
:1003B9008922758DF5C2ACC28FD2ABD2AFC3E589A4
:1003C90092E7F589C3E58992E6F589C3E58992E55E
:1003D900F589D3E58992E4F589C28E758DFC758B13
:1003E90018D28E75B0FFD2A8D2AA750B1E750C0053
:1003F9007133C3E5B092E5F5B0750B3C714F750BE0
:100409000C714F750B01714F750B06714F750B40D0
:10041900714F750800C3E50894085009750B007100
:1004290004050880F0750800C3E5089408500975AB
:100439000B107104050880F0750800C3E5089408DD
:100449005009750B187104050880F0750800C3E59B
:100459000894085009750B1C7104050880F075088B
:1004690000C3E50894085009750B1E71040508803E
:10047900F0750800C3E50894085009750B1F71044D
:05048900050880F022CF
:08048E00E493F608A3D9F9225A
:10049600750800E580541FF844C0F580750900C34F
:1004A600E509940A5004050980F5209003750801B2
:1004B600E580541FF844A0F580750900C3E509944A
:1004C6000A5004050980F5209003750802E580545A
:1004D6001FF84460F580750900C3E509940A5004C5
:0D04E600050980F5209003750803A8082281
:1004F300750800750900750B80714FC3E5089410EA
:1005030074006480F8E5096480985053E56B25080E
:10051300F9E43509FAC3E9941074006480F8EA64D5
:1005230080984018E56B2508F8E43509F9C3E89489
:1005330010F8E99400F9AA00AB01800DE56B2508DA
:10054300F8E43509F9AA00AB01746C2AF8860B713B
:100553000474012508F50874003509F50981FE22A4
:1005630085080AA80A050AA9090509E7F6E660024B
:0505730080F1A8082240
:10057800C000C0D0C0E0C0F0C082C083E55770039F
:10058800755601D083D082D0F0D0E0D0D0D00032E0
:10059800C0D0C0E0C0F0C082C083C2AFC28FC28EDC
:1005A800758DFC758B1874012542F542740035432E
:1005B800F543D2AFD28ED083D082D0F0D0E0D0D065
:0105C8003200
:1005C90075818012076071A9C284D281C280D282EA
:1005D90075086C75095AB16391F391968500598034
:1005E9001875586475590080227558967559008098
:1005F9001A7558C87559008012E559640160E2E519
:1006090059640260E4E559640360E6C1C0E55664D3
:10061900016004790080027901E55564006004787D
:100629000080027801E95200E86015755701755696
:100639000075551475086C750944B16391F3C2814D
:10064900C1E2E555701A755702C3E558941EF55570
:1006590075086C750930B16391F3D280D281C28279
:10066900C1E2E555700675570375551EC1E275F06F
:1006790005E55584E5F0F9700AA282B39282A28455
:10068900B39284E555701475570475551475086C43
:10069900750944B16391F3D282C281803CE55570FA
:1006A90014755700855855D281C28075086C750933
:1006B9005AB16391F38022E5577002C116E5576478
:1006C900017002C14BE55764027002C16BE55764C2
:1006D90003609BE557640460C4E5556002155575D0
:0B06E9000B64750C007133A1E380FE70
:1006F400C000C0D0C0E0C0F0C082C083E557700322
:10070400755601D083D082D0F0D0E0D0D0D0003262
:0E0760007830794C75821475830712048E224E
:10071400475245454E202020202020202020202004
:020724002000B3
:020726000000D1
:1007280059454C4C4F572020202020000000000045
:0107380000C0
:0107390000BF
:01073A0000BE
:01073B0000BD
:01073C006458
:01073D0000BB
:10073E0052454420202020202020202000000000B0
:01074E0000AA
:01074F001099
:100750000000000000000000000000000000000099
:00000001FF
